{
	".git/ELLLLLL.sol": {
		"calculator": {
			"abi": [
				{
					"inputs": [],
					"name": "addition",
					"outputs": [
						{
							"internalType": "int256",
							"name": "",
							"type": "int256"
						}
					],
					"stateMutability": "view",
					"type": "function"
				},
				{
					"inputs": [],
					"name": "division",
					"outputs": [
						{
							"internalType": "int256",
							"name": "",
							"type": "int256"
						}
					],
					"stateMutability": "view",
					"type": "function"
				},
				{
					"inputs": [
						{
							"internalType": "int256",
							"name": "_first",
							"type": "int256"
						}
					],
					"name": "getfirstnumber",
					"outputs": [],
					"stateMutability": "nonpayable",
					"type": "function"
				},
				{
					"inputs": [
						{
							"internalType": "int256",
							"name": "_second",
							"type": "int256"
						}
					],
					"name": "getsecondnumber",
					"outputs": [],
					"stateMutability": "nonpayable",
					"type": "function"
				},
				{
					"inputs": [],
					"name": "multiplication",
					"outputs": [
						{
							"internalType": "int256",
							"name": "",
							"type": "int256"
						}
					],
					"stateMutability": "view",
					"type": "function"
				},
				{
					"inputs": [],
					"name": "subtractrion",
					"outputs": [
						{
							"internalType": "int256",
							"name": "",
							"type": "int256"
						}
					],
					"stateMutability": "view",
					"type": "function"
				}
			],
			"devdoc": {
				"kind": "dev",
				"methods": {},
				"version": 1
			},
			"evm": {
				"assembly": "    /* \".git/ELLLLLL.sol\":214:928  contract calculator{... */\n  mstore(0x40, 0x80)\n  callvalue\n  dup1\n  iszero\n  tag_1\n  jumpi\n  revert(0x00, 0x00)\ntag_1:\n  pop\n  dataSize(sub_0)\n  dup1\n  dataOffset(sub_0)\n  0x00\n  codecopy\n  0x00\n  return\nstop\n\nsub_0: assembly {\n        /* \".git/ELLLLLL.sol\":214:928  contract calculator{... */\n      mstore(0x40, 0x80)\n      callvalue\n      dup1\n      iszero\n      tag_1\n      jumpi\n      revert(0x00, 0x00)\n    tag_1:\n      pop\n      jumpi(tag_2, lt(calldatasize, 0x04))\n      shr(0xe0, calldataload(0x00))\n      dup1\n      0x011285da\n      eq\n      tag_3\n      jumpi\n      dup1\n      0x3205f5fc\n      eq\n      tag_4\n      jumpi\n      dup1\n      0x4061b02f\n      eq\n      tag_5\n      jumpi\n      dup1\n      0x8a5c6bd7\n      eq\n      tag_6\n      jumpi\n      dup1\n      0xd4ef674d\n      eq\n      tag_7\n      jumpi\n      dup1\n      0xec597128\n      eq\n      tag_8\n      jumpi\n    tag_2:\n      revert(0x00, 0x00)\n        /* \".git/ELLLLLL.sol\":818:925  function multiplication() public view returns (int){... */\n    tag_3:\n      tag_9\n      tag_10\n      jump\t// in\n    tag_9:\n      mload(0x40)\n      tag_11\n      swap2\n      swap1\n      tag_12\n      jump\t// in\n    tag_11:\n      mload(0x40)\n      dup1\n      swap2\n      sub\n      swap1\n      return\n        /* \".git/ELLLLLL.sol\":705:806  function division() public view returns (int){... */\n    tag_4:\n      tag_13\n      tag_14\n      jump\t// in\n    tag_13:\n      mload(0x40)\n      tag_15\n      swap2\n      swap1\n      tag_12\n      jump\t// in\n    tag_15:\n      mload(0x40)\n      dup1\n      swap2\n      sub\n      swap1\n      return\n        /* \".git/ELLLLLL.sol\":288:371  function getfirstnumber(int _first) public {... */\n    tag_5:\n      tag_16\n      0x04\n      dup1\n      calldatasize\n      sub\n      dup2\n      add\n      swap1\n      tag_17\n      swap2\n      swap1\n      tag_18\n      jump\t// in\n    tag_17:\n      tag_19\n      jump\t// in\n    tag_16:\n      stop\n        /* \".git/ELLLLLL.sol\":588:693  function subtractrion() public view returns (int){... */\n    tag_6:\n      tag_20\n      tag_21\n      jump\t// in\n    tag_20:\n      mload(0x40)\n      tag_22\n      swap2\n      swap1\n      tag_12\n      jump\t// in\n    tag_22:\n      mload(0x40)\n      dup1\n      swap2\n      sub\n      swap1\n      return\n        /* \".git/ELLLLLL.sol\":380:467  function getsecondnumber(int _second) public {... */\n    tag_7:\n      tag_23\n      0x04\n      dup1\n      calldatasize\n      sub\n      dup2\n      add\n      swap1\n      tag_24\n      swap2\n      swap1\n      tag_18\n      jump\t// in\n    tag_24:\n      tag_25\n      jump\t// in\n    tag_23:\n      stop\n        /* \".git/ELLLLLL.sol\":475:576  function addition() public view returns (int){... */\n    tag_8:\n      tag_26\n      tag_27\n      jump\t// in\n    tag_26:\n      mload(0x40)\n      tag_28\n      swap2\n      swap1\n      tag_12\n      jump\t// in\n    tag_28:\n      mload(0x40)\n      dup1\n      swap2\n      sub\n      swap1\n      return\n        /* \".git/ELLLLLL.sol\":818:925  function multiplication() public view returns (int){... */\n    tag_10:\n        /* \".git/ELLLLLL.sol\":865:868  int */\n      0x00\n        /* \".git/ELLLLLL.sol\":901:913  secondnumber */\n      sload(0x01)\n        /* \".git/ELLLLLL.sol\":887:898  firstnumber */\n      sload(0x00)\n        /* \".git/ELLLLLL.sol\":887:913  firstnumber * secondnumber */\n      tag_30\n      swap2\n      swap1\n      tag_31\n      jump\t// in\n    tag_30:\n        /* \".git/ELLLLLL.sol\":880:913  return firstnumber * secondnumber */\n      swap1\n      pop\n        /* \".git/ELLLLLL.sol\":818:925  function multiplication() public view returns (int){... */\n      swap1\n      jump\t// out\n        /* \".git/ELLLLLL.sol\":705:806  function division() public view returns (int){... */\n    tag_14:\n        /* \".git/ELLLLLL.sol\":746:749  int */\n      0x00\n        /* \".git/ELLLLLL.sol\":782:794  secondnumber */\n      sload(0x01)\n        /* \".git/ELLLLLL.sol\":768:779  firstnumber */\n      sload(0x00)\n        /* \".git/ELLLLLL.sol\":768:794  firstnumber / secondnumber */\n      tag_33\n      swap2\n      swap1\n      tag_34\n      jump\t// in\n    tag_33:\n        /* \".git/ELLLLLL.sol\":761:794  return firstnumber / secondnumber */\n      swap1\n      pop\n        /* \".git/ELLLLLL.sol\":705:806  function division() public view returns (int){... */\n      swap1\n      jump\t// out\n        /* \".git/ELLLLLL.sol\":288:371  function getfirstnumber(int _first) public {... */\n    tag_19:\n        /* \".git/ELLLLLL.sol\":356:362  _first */\n      dup1\n        /* \".git/ELLLLLL.sol\":342:353  firstnumber */\n      0x00\n        /* \".git/ELLLLLL.sol\":342:362  firstnumber = _first */\n      dup2\n      swap1\n      sstore\n      pop\n        /* \".git/ELLLLLL.sol\":288:371  function getfirstnumber(int _first) public {... */\n      pop\n      jump\t// out\n        /* \".git/ELLLLLL.sol\":588:693  function subtractrion() public view returns (int){... */\n    tag_21:\n        /* \".git/ELLLLLL.sol\":633:636  int */\n      0x00\n        /* \".git/ELLLLLL.sol\":669:681  secondnumber */\n      sload(0x01)\n        /* \".git/ELLLLLL.sol\":655:666  firstnumber */\n      sload(0x00)\n        /* \".git/ELLLLLL.sol\":655:681  firstnumber - secondnumber */\n      tag_37\n      swap2\n      swap1\n      tag_38\n      jump\t// in\n    tag_37:\n        /* \".git/ELLLLLL.sol\":648:681  return firstnumber - secondnumber */\n      swap1\n      pop\n        /* \".git/ELLLLLL.sol\":588:693  function subtractrion() public view returns (int){... */\n      swap1\n      jump\t// out\n        /* \".git/ELLLLLL.sol\":380:467  function getsecondnumber(int _second) public {... */\n    tag_25:\n        /* \".git/ELLLLLL.sol\":451:458  _second */\n      dup1\n        /* \".git/ELLLLLL.sol\":436:448  secondnumber */\n      0x01\n        /* \".git/ELLLLLL.sol\":436:458  secondnumber = _second */\n      dup2\n      swap1\n      sstore\n      pop\n        /* \".git/ELLLLLL.sol\":380:467  function getsecondnumber(int _second) public {... */\n      pop\n      jump\t// out\n        /* \".git/ELLLLLL.sol\":475:576  function addition() public view returns (int){... */\n    tag_27:\n        /* \".git/ELLLLLL.sol\":516:519  int */\n      0x00\n        /* \".git/ELLLLLL.sol\":552:564  secondnumber */\n      sload(0x01)\n        /* \".git/ELLLLLL.sol\":538:549  firstnumber */\n      sload(0x00)\n        /* \".git/ELLLLLL.sol\":538:564  firstnumber + secondnumber */\n      tag_41\n      swap2\n      swap1\n      tag_42\n      jump\t// in\n    tag_41:\n        /* \".git/ELLLLLL.sol\":531:564  return firstnumber + secondnumber */\n      swap1\n      pop\n        /* \".git/ELLLLLL.sol\":475:576  function addition() public view returns (int){... */\n      swap1\n      jump\t// out\n        /* \"#utility.yul\":7:83   */\n    tag_43:\n        /* \"#utility.yul\":43:50   */\n      0x00\n        /* \"#utility.yul\":72:77   */\n      dup2\n        /* \"#utility.yul\":61:77   */\n      swap1\n      pop\n        /* \"#utility.yul\":7:83   */\n      swap2\n      swap1\n      pop\n      jump\t// out\n        /* \"#utility.yul\":89:204   */\n    tag_44:\n        /* \"#utility.yul\":174:197   */\n      tag_55\n        /* \"#utility.yul\":191:196   */\n      dup2\n        /* \"#utility.yul\":174:197   */\n      tag_43\n      jump\t// in\n    tag_55:\n        /* \"#utility.yul\":169:172   */\n      dup3\n        /* \"#utility.yul\":162:198   */\n      mstore\n        /* \"#utility.yul\":89:204   */\n      pop\n      pop\n      jump\t// out\n        /* \"#utility.yul\":210:428   */\n    tag_12:\n        /* \"#utility.yul\":301:305   */\n      0x00\n        /* \"#utility.yul\":339:341   */\n      0x20\n        /* \"#utility.yul\":328:337   */\n      dup3\n        /* \"#utility.yul\":324:342   */\n      add\n        /* \"#utility.yul\":316:342   */\n      swap1\n      pop\n        /* \"#utility.yul\":352:421   */\n      tag_57\n        /* \"#utility.yul\":418:419   */\n      0x00\n        /* \"#utility.yul\":407:416   */\n      dup4\n        /* \"#utility.yul\":403:420   */\n      add\n        /* \"#utility.yul\":394:400   */\n      dup5\n        /* \"#utility.yul\":352:421   */\n      tag_44\n      jump\t// in\n    tag_57:\n        /* \"#utility.yul\":210:428   */\n      swap3\n      swap2\n      pop\n      pop\n      jump\t// out\n        /* \"#utility.yul\":515:632   */\n    tag_46:\n        /* \"#utility.yul\":624:625   */\n      0x00\n        /* \"#utility.yul\":621:622   */\n      0x00\n        /* \"#utility.yul\":614:626   */\n      revert\n        /* \"#utility.yul\":761:881   */\n    tag_48:\n        /* \"#utility.yul\":833:856   */\n      tag_62\n        /* \"#utility.yul\":850:855   */\n      dup2\n        /* \"#utility.yul\":833:856   */\n      tag_43\n      jump\t// in\n    tag_62:\n        /* \"#utility.yul\":826:831   */\n      dup2\n        /* \"#utility.yul\":823:857   */\n      eq\n        /* \"#utility.yul\":813:875   */\n      tag_63\n      jumpi\n        /* \"#utility.yul\":871:872   */\n      0x00\n        /* \"#utility.yul\":868:869   */\n      0x00\n        /* \"#utility.yul\":861:873   */\n      revert\n        /* \"#utility.yul\":813:875   */\n    tag_63:\n        /* \"#utility.yul\":761:881   */\n      pop\n      jump\t// out\n        /* \"#utility.yul\":887:1024   */\n    tag_49:\n        /* \"#utility.yul\":932:937   */\n      0x00\n        /* \"#utility.yul\":970:976   */\n      dup2\n        /* \"#utility.yul\":957:977   */\n      calldataload\n        /* \"#utility.yul\":948:977   */\n      swap1\n      pop\n        /* \"#utility.yul\":986:1018   */\n      tag_65\n        /* \"#utility.yul\":1012:1017   */\n      dup2\n        /* \"#utility.yul\":986:1018   */\n      tag_48\n      jump\t// in\n    tag_65:\n        /* \"#utility.yul\":887:1024   */\n      swap3\n      swap2\n      pop\n      pop\n      jump\t// out\n        /* \"#utility.yul\":1030:1357   */\n    tag_18:\n        /* \"#utility.yul\":1088:1094   */\n      0x00\n        /* \"#utility.yul\":1137:1139   */\n      0x20\n        /* \"#utility.yul\":1125:1134   */\n      dup3\n        /* \"#utility.yul\":1116:1123   */\n      dup5\n        /* \"#utility.yul\":1112:1135   */\n      sub\n        /* \"#utility.yul\":1108:1140   */\n      slt\n        /* \"#utility.yul\":1105:1224   */\n      iszero\n      tag_67\n      jumpi\n        /* \"#utility.yul\":1143:1222   */\n      tag_68\n      tag_46\n      jump\t// in\n    tag_68:\n        /* \"#utility.yul\":1105:1224   */\n    tag_67:\n        /* \"#utility.yul\":1263:1264   */\n      0x00\n        /* \"#utility.yul\":1288:1340   */\n      tag_69\n        /* \"#utility.yul\":1332:1339   */\n      dup5\n        /* \"#utility.yul\":1323:1329   */\n      dup3\n        /* \"#utility.yul\":1312:1321   */\n      dup6\n        /* \"#utility.yul\":1308:1330   */\n      add\n        /* \"#utility.yul\":1288:1340   */\n      tag_49\n      jump\t// in\n    tag_69:\n        /* \"#utility.yul\":1278:1340   */\n      swap2\n      pop\n        /* \"#utility.yul\":1234:1350   */\n      pop\n        /* \"#utility.yul\":1030:1357   */\n      swap3\n      swap2\n      pop\n      pop\n      jump\t// out\n        /* \"#utility.yul\":1363:1543   */\n    tag_50:\n        /* \"#utility.yul\":1411:1488   */\n      0x4e487b7100000000000000000000000000000000000000000000000000000000\n        /* \"#utility.yul\":1408:1409   */\n      0x00\n        /* \"#utility.yul\":1401:1489   */\n      mstore\n        /* \"#utility.yul\":1508:1512   */\n      0x11\n        /* \"#utility.yul\":1505:1506   */\n      0x04\n        /* \"#utility.yul\":1498:1513   */\n      mstore\n        /* \"#utility.yul\":1532:1536   */\n      0x24\n        /* \"#utility.yul\":1529:1530   */\n      0x00\n        /* \"#utility.yul\":1522:1537   */\n      revert\n        /* \"#utility.yul\":1549:2105   */\n    tag_31:\n        /* \"#utility.yul\":1588:1595   */\n      0x00\n        /* \"#utility.yul\":1611:1630   */\n      tag_72\n        /* \"#utility.yul\":1628:1629   */\n      dup3\n        /* \"#utility.yul\":1611:1630   */\n      tag_43\n      jump\t// in\n    tag_72:\n        /* \"#utility.yul\":1606:1630   */\n      swap2\n      pop\n        /* \"#utility.yul\":1644:1663   */\n      tag_73\n        /* \"#utility.yul\":1661:1662   */\n      dup4\n        /* \"#utility.yul\":1644:1663   */\n      tag_43\n      jump\t// in\n    tag_73:\n        /* \"#utility.yul\":1639:1663   */\n      swap3\n      pop\n        /* \"#utility.yul\":1698:1699   */\n      dup3\n        /* \"#utility.yul\":1695:1696   */\n      dup3\n        /* \"#utility.yul\":1691:1700   */\n      mul\n        /* \"#utility.yul\":1720:1749   */\n      tag_74\n        /* \"#utility.yul\":1737:1748   */\n      dup2\n        /* \"#utility.yul\":1720:1749   */\n      tag_43\n      jump\t// in\n    tag_74:\n        /* \"#utility.yul\":1709:1749   */\n      swap2\n      pop\n        /* \"#utility.yul\":1807:1873   */\n      0x8000000000000000000000000000000000000000000000000000000000000000\n        /* \"#utility.yul\":1804:1805   */\n      dup5\n        /* \"#utility.yul\":1801:1874   */\n      eq\n        /* \"#utility.yul\":1797:1798   */\n      0x00\n        /* \"#utility.yul\":1794:1795   */\n      dup5\n        /* \"#utility.yul\":1790:1799   */\n      slt\n        /* \"#utility.yul\":1786:1875   */\n      and\n        /* \"#utility.yul\":1783:1898   */\n      iszero\n      tag_75\n      jumpi\n        /* \"#utility.yul\":1878:1896   */\n      tag_76\n      tag_50\n      jump\t// in\n    tag_76:\n        /* \"#utility.yul\":1783:1898   */\n    tag_75:\n        /* \"#utility.yul\":2048:2049   */\n      dup3\n        /* \"#utility.yul\":2039:2046   */\n      dup3\n        /* \"#utility.yul\":2034:2050   */\n      sdiv\n        /* \"#utility.yul\":2031:2032   */\n      dup5\n        /* \"#utility.yul\":2028:2051   */\n      eq\n        /* \"#utility.yul\":2008:2009   */\n      dup4\n        /* \"#utility.yul\":2001:2010   */\n      iszero\n        /* \"#utility.yul\":1981:2065   */\n      or\n        /* \"#utility.yul\":1958:2098   */\n      tag_77\n      jumpi\n        /* \"#utility.yul\":2078:2096   */\n      tag_78\n      tag_50\n      jump\t// in\n    tag_78:\n        /* \"#utility.yul\":1958:2098   */\n    tag_77:\n        /* \"#utility.yul\":1596:2105   */\n      pop\n        /* \"#utility.yul\":1549:2105   */\n      swap3\n      swap2\n      pop\n      pop\n      jump\t// out\n        /* \"#utility.yul\":2111:2291   */\n    tag_51:\n        /* \"#utility.yul\":2159:2236   */\n      0x4e487b7100000000000000000000000000000000000000000000000000000000\n        /* \"#utility.yul\":2156:2157   */\n      0x00\n        /* \"#utility.yul\":2149:2237   */\n      mstore\n        /* \"#utility.yul\":2256:2260   */\n      0x12\n        /* \"#utility.yul\":2253:2254   */\n      0x04\n        /* \"#utility.yul\":2246:2261   */\n      mstore\n        /* \"#utility.yul\":2280:2284   */\n      0x24\n        /* \"#utility.yul\":2277:2278   */\n      0x00\n        /* \"#utility.yul\":2270:2285   */\n      revert\n        /* \"#utility.yul\":2297:2682   */\n    tag_34:\n        /* \"#utility.yul\":2336:2337   */\n      0x00\n        /* \"#utility.yul\":2353:2372   */\n      tag_81\n        /* \"#utility.yul\":2370:2371   */\n      dup3\n        /* \"#utility.yul\":2353:2372   */\n      tag_43\n      jump\t// in\n    tag_81:\n        /* \"#utility.yul\":2348:2372   */\n      swap2\n      pop\n        /* \"#utility.yul\":2386:2405   */\n      tag_82\n        /* \"#utility.yul\":2403:2404   */\n      dup4\n        /* \"#utility.yul\":2386:2405   */\n      tag_43\n      jump\t// in\n    tag_82:\n        /* \"#utility.yul\":2381:2405   */\n      swap3\n      pop\n        /* \"#utility.yul\":2424:2425   */\n      dup3\n        /* \"#utility.yul\":2414:2449   */\n      tag_83\n      jumpi\n        /* \"#utility.yul\":2429:2447   */\n      tag_84\n      tag_51\n      jump\t// in\n    tag_84:\n        /* \"#utility.yul\":2414:2449   */\n    tag_83:\n        /* \"#utility.yul\":2615:2616   */\n      0x01\n        /* \"#utility.yul\":2612:2613   */\n      0x00\n        /* \"#utility.yul\":2608:2617   */\n      sub\n        /* \"#utility.yul\":2605:2606   */\n      dup4\n        /* \"#utility.yul\":2602:2618   */\n      eq\n        /* \"#utility.yul\":2521:2587   */\n      0x8000000000000000000000000000000000000000000000000000000000000000\n        /* \"#utility.yul\":2518:2519   */\n      dup4\n        /* \"#utility.yul\":2515:2588   */\n      eq\n        /* \"#utility.yul\":2498:2628   */\n      and\n        /* \"#utility.yul\":2495:2651   */\n      iszero\n      tag_85\n      jumpi\n        /* \"#utility.yul\":2631:2649   */\n      tag_86\n      tag_50\n      jump\t// in\n    tag_86:\n        /* \"#utility.yul\":2495:2651   */\n    tag_85:\n        /* \"#utility.yul\":2674:2675   */\n      dup3\n        /* \"#utility.yul\":2671:2672   */\n      dup3\n        /* \"#utility.yul\":2666:2676   */\n      sdiv\n        /* \"#utility.yul\":2661:2676   */\n      swap1\n      pop\n        /* \"#utility.yul\":2297:2682   */\n      swap3\n      swap2\n      pop\n      pop\n      jump\t// out\n        /* \"#utility.yul\":2688:3060   */\n    tag_38:\n        /* \"#utility.yul\":2727:2731   */\n      0x00\n        /* \"#utility.yul\":2747:2766   */\n      tag_88\n        /* \"#utility.yul\":2764:2765   */\n      dup3\n        /* \"#utility.yul\":2747:2766   */\n      tag_43\n      jump\t// in\n    tag_88:\n        /* \"#utility.yul\":2742:2766   */\n      swap2\n      pop\n        /* \"#utility.yul\":2780:2799   */\n      tag_89\n        /* \"#utility.yul\":2797:2798   */\n      dup4\n        /* \"#utility.yul\":2780:2799   */\n      tag_43\n      jump\t// in\n    tag_89:\n        /* \"#utility.yul\":2775:2799   */\n      swap3\n      pop\n        /* \"#utility.yul\":2823:2824   */\n      dup3\n        /* \"#utility.yul\":2820:2821   */\n      dup3\n        /* \"#utility.yul\":2816:2825   */\n      sub\n        /* \"#utility.yul\":2808:2825   */\n      swap1\n      pop\n        /* \"#utility.yul\":3017:3018   */\n      dup2\n        /* \"#utility.yul\":3011:3015   */\n      dup2\n        /* \"#utility.yul\":3007:3019   */\n      slt\n        /* \"#utility.yul\":3003:3004   */\n      0x00\n        /* \"#utility.yul\":3000:3001   */\n      dup5\n        /* \"#utility.yul\":2996:3005   */\n      slt\n        /* \"#utility.yul\":2992:3020   */\n      and\n        /* \"#utility.yul\":2975:2976   */\n      dup3\n        /* \"#utility.yul\":2969:2973   */\n      dup3\n        /* \"#utility.yul\":2965:2977   */\n      sgt\n        /* \"#utility.yul\":2960:2961   */\n      0x00\n        /* \"#utility.yul\":2957:2958   */\n      dup6\n        /* \"#utility.yul\":2953:2962   */\n      slt\n        /* \"#utility.yul\":2946:2963   */\n      iszero\n        /* \"#utility.yul\":2942:2978   */\n      and\n        /* \"#utility.yul\":2926:3030   */\n      or\n        /* \"#utility.yul\":2923:3053   */\n      iszero\n      tag_90\n      jumpi\n        /* \"#utility.yul\":3033:3051   */\n      tag_91\n      tag_50\n      jump\t// in\n    tag_91:\n        /* \"#utility.yul\":2923:3053   */\n    tag_90:\n        /* \"#utility.yul\":2688:3060   */\n      swap3\n      swap2\n      pop\n      pop\n      jump\t// out\n        /* \"#utility.yul\":3066:3441   */\n    tag_42:\n        /* \"#utility.yul\":3105:3108   */\n      0x00\n        /* \"#utility.yul\":3124:3143   */\n      tag_93\n        /* \"#utility.yul\":3141:3142   */\n      dup3\n        /* \"#utility.yul\":3124:3143   */\n      tag_43\n      jump\t// in\n    tag_93:\n        /* \"#utility.yul\":3119:3143   */\n      swap2\n      pop\n        /* \"#utility.yul\":3157:3176   */\n      tag_94\n        /* \"#utility.yul\":3174:3175   */\n      dup4\n        /* \"#utility.yul\":3157:3176   */\n      tag_43\n      jump\t// in\n    tag_94:\n        /* \"#utility.yul\":3152:3176   */\n      swap3\n      pop\n        /* \"#utility.yul\":3199:3200   */\n      dup3\n        /* \"#utility.yul\":3196:3197   */\n      dup3\n        /* \"#utility.yul\":3192:3201   */\n      add\n        /* \"#utility.yul\":3185:3201   */\n      swap1\n      pop\n        /* \"#utility.yul\":3397:3398   */\n      dup3\n        /* \"#utility.yul\":3392:3395   */\n      dup2\n        /* \"#utility.yul\":3388:3399   */\n      slt\n        /* \"#utility.yul\":3381:3400   */\n      iszero\n        /* \"#utility.yul\":3377:3378   */\n      0x00\n        /* \"#utility.yul\":3374:3375   */\n      dup4\n        /* \"#utility.yul\":3370:3379   */\n      slt\n        /* \"#utility.yul\":3366:3401   */\n      and\n        /* \"#utility.yul\":3349:3350   */\n      dup4\n        /* \"#utility.yul\":3344:3347   */\n      dup3\n        /* \"#utility.yul\":3340:3351   */\n      slt\n        /* \"#utility.yul\":3335:3336   */\n      0x00\n        /* \"#utility.yul\":3332:3333   */\n      dup5\n        /* \"#utility.yul\":3328:3337   */\n      slt\n        /* \"#utility.yul\":3321:3338   */\n      iszero\n        /* \"#utility.yul\":3317:3352   */\n      and\n        /* \"#utility.yul\":3301:3411   */\n      or\n        /* \"#utility.yul\":3298:3434   */\n      iszero\n      tag_95\n      jumpi\n        /* \"#utility.yul\":3414:3432   */\n      tag_96\n      tag_50\n      jump\t// in\n    tag_96:\n        /* \"#utility.yul\":3298:3434   */\n    tag_95:\n        /* \"#utility.yul\":3066:3441   */\n      swap3\n      swap2\n      pop\n      pop\n      jump\t// out\n\n    auxdata: 0xa26469706673582212206b5f9ab053028aae19533972f205662bd99453f6a74f6df77fff39d521592bf364736f6c634300081e0033\n}\n",
				"bytecode": {
					"linkReferences": {},
					"object": "6080604052348015600e575f5ffd5b506103f48061001c5f395ff3fe608060405234801561000f575f5ffd5b5060043610610060575f3560e01c8063011285da146100645780633205f5fc146100825780634061b02f146100a05780638a5c6bd7146100bc578063d4ef674d146100da578063ec597128146100f6575b5f5ffd5b61006c610114565b6040516100799190610193565b60405180910390f35b61008a610129565b6040516100979190610193565b60405180910390f35b6100ba60048036038101906100b591906101da565b61013e565b005b6100c4610147565b6040516100d19190610193565b60405180910390f35b6100f460048036038101906100ef91906101da565b61015c565b005b6100fe610166565b60405161010b9190610193565b60405180910390f35b5f6001545f546101249190610232565b905090565b5f6001545f5461013991906102d5565b905090565b805f8190555050565b5f6001545f54610157919061033d565b905090565b8060018190555050565b5f6001545f54610176919061037d565b905090565b5f819050919050565b61018d8161017b565b82525050565b5f6020820190506101a65f830184610184565b92915050565b5f5ffd5b6101b98161017b565b81146101c3575f5ffd5b50565b5f813590506101d4816101b0565b92915050565b5f602082840312156101ef576101ee6101ac565b5b5f6101fc848285016101c6565b91505092915050565b7f4e487b71000000000000000000000000000000000000000000000000000000005f52601160045260245ffd5b5f61023c8261017b565b91506102478361017b565b92508282026102558161017b565b91507f800000000000000000000000000000000000000000000000000000000000000084145f8412161561028c5761028b610205565b5b82820584148315176102a1576102a0610205565b5b5092915050565b7f4e487b71000000000000000000000000000000000000000000000000000000005f52601260045260245ffd5b5f6102df8261017b565b91506102ea8361017b565b9250826102fa576102f96102a8565b5b60015f0383147f80000000000000000000000000000000000000000000000000000000000000008314161561033257610331610205565b5b828205905092915050565b5f6103478261017b565b91506103528361017b565b925082820390508181125f8412168282135f85121516171561037757610376610205565b5b92915050565b5f6103878261017b565b91506103928361017b565b92508282019050828112155f8312168382125f8412151617156103b8576103b7610205565b5b9291505056fea26469706673582212206b5f9ab053028aae19533972f205662bd99453f6a74f6df77fff39d521592bf364736f6c634300081e0033",
					"opcodes": "PUSH1 0x80 PUSH1 0x40 MSTORE CALLVALUE DUP1 ISZERO PUSH1 0xE JUMPI PUSH0 PUSH0 REVERT JUMPDEST POP PUSH2 0x3F4 DUP1 PUSH2 0x1C PUSH0 CODECOPY PUSH0 RETURN INVALID PUSH1 0x80 PUSH1 0x40 MSTORE CALLVALUE DUP1 ISZERO PUSH2 0xF JUMPI PUSH0 PUSH0 REVERT JUMPDEST POP PUSH1 0x4 CALLDATASIZE LT PUSH2 0x60 JUMPI PUSH0 CALLDATALOAD PUSH1 0xE0 SHR DUP1 PUSH4 0x11285DA EQ PUSH2 0x64 JUMPI DUP1 PUSH4 0x3205F5FC EQ PUSH2 0x82 JUMPI DUP1 PUSH4 0x4061B02F EQ PUSH2 0xA0 JUMPI DUP1 PUSH4 0x8A5C6BD7 EQ PUSH2 0xBC JUMPI DUP1 PUSH4 0xD4EF674D EQ PUSH2 0xDA JUMPI DUP1 PUSH4 0xEC597128 EQ PUSH2 0xF6 JUMPI JUMPDEST PUSH0 PUSH0 REVERT JUMPDEST PUSH2 0x6C PUSH2 0x114 JUMP JUMPDEST PUSH1 0x40 MLOAD PUSH2 0x79 SWAP2 SWAP1 PUSH2 0x193 JUMP JUMPDEST PUSH1 0x40 MLOAD DUP1 SWAP2 SUB SWAP1 RETURN JUMPDEST PUSH2 0x8A PUSH2 0x129 JUMP JUMPDEST PUSH1 0x40 MLOAD PUSH2 0x97 SWAP2 SWAP1 PUSH2 0x193 JUMP JUMPDEST PUSH1 0x40 MLOAD DUP1 SWAP2 SUB SWAP1 RETURN JUMPDEST PUSH2 0xBA PUSH1 0x4 DUP1 CALLDATASIZE SUB DUP2 ADD SWAP1 PUSH2 0xB5 SWAP2 SWAP1 PUSH2 0x1DA JUMP JUMPDEST PUSH2 0x13E JUMP JUMPDEST STOP JUMPDEST PUSH2 0xC4 PUSH2 0x147 JUMP JUMPDEST PUSH1 0x40 MLOAD PUSH2 0xD1 SWAP2 SWAP1 PUSH2 0x193 JUMP JUMPDEST PUSH1 0x40 MLOAD DUP1 SWAP2 SUB SWAP1 RETURN JUMPDEST PUSH2 0xF4 PUSH1 0x4 DUP1 CALLDATASIZE SUB DUP2 ADD SWAP1 PUSH2 0xEF SWAP2 SWAP1 PUSH2 0x1DA JUMP JUMPDEST PUSH2 0x15C JUMP JUMPDEST STOP JUMPDEST PUSH2 0xFE PUSH2 0x166 JUMP JUMPDEST PUSH1 0x40 MLOAD PUSH2 0x10B SWAP2 SWAP1 PUSH2 0x193 JUMP JUMPDEST PUSH1 0x40 MLOAD DUP1 SWAP2 SUB SWAP1 RETURN JUMPDEST PUSH0 PUSH1 0x1 SLOAD PUSH0 SLOAD PUSH2 0x124 SWAP2 SWAP1 PUSH2 0x232 JUMP JUMPDEST SWAP1 POP SWAP1 JUMP JUMPDEST PUSH0 PUSH1 0x1 SLOAD PUSH0 SLOAD PUSH2 0x139 SWAP2 SWAP1 PUSH2 0x2D5 JUMP JUMPDEST SWAP1 POP SWAP1 JUMP JUMPDEST DUP1 PUSH0 DUP2 SWAP1 SSTORE POP POP JUMP JUMPDEST PUSH0 PUSH1 0x1 SLOAD PUSH0 SLOAD PUSH2 0x157 SWAP2 SWAP1 PUSH2 0x33D JUMP JUMPDEST SWAP1 POP SWAP1 JUMP JUMPDEST DUP1 PUSH1 0x1 DUP2 SWAP1 SSTORE POP POP JUMP JUMPDEST PUSH0 PUSH1 0x1 SLOAD PUSH0 SLOAD PUSH2 0x176 SWAP2 SWAP1 PUSH2 0x37D JUMP JUMPDEST SWAP1 POP SWAP1 JUMP JUMPDEST PUSH0 DUP2 SWAP1 POP SWAP2 SWAP1 POP JUMP JUMPDEST PUSH2 0x18D DUP2 PUSH2 0x17B JUMP JUMPDEST DUP3 MSTORE POP POP JUMP JUMPDEST PUSH0 PUSH1 0x20 DUP3 ADD SWAP1 POP PUSH2 0x1A6 PUSH0 DUP4 ADD DUP5 PUSH2 0x184 JUMP JUMPDEST SWAP3 SWAP2 POP POP JUMP JUMPDEST PUSH0 PUSH0 REVERT JUMPDEST PUSH2 0x1B9 DUP2 PUSH2 0x17B JUMP JUMPDEST DUP2 EQ PUSH2 0x1C3 JUMPI PUSH0 PUSH0 REVERT JUMPDEST POP JUMP JUMPDEST PUSH0 DUP2 CALLDATALOAD SWAP1 POP PUSH2 0x1D4 DUP2 PUSH2 0x1B0 JUMP JUMPDEST SWAP3 SWAP2 POP POP JUMP JUMPDEST PUSH0 PUSH1 0x20 DUP3 DUP5 SUB SLT ISZERO PUSH2 0x1EF JUMPI PUSH2 0x1EE PUSH2 0x1AC JUMP JUMPDEST JUMPDEST PUSH0 PUSH2 0x1FC DUP5 DUP3 DUP6 ADD PUSH2 0x1C6 JUMP JUMPDEST SWAP2 POP POP SWAP3 SWAP2 POP POP JUMP JUMPDEST PUSH32 0x4E487B7100000000000000000000000000000000000000000000000000000000 PUSH0 MSTORE PUSH1 0x11 PUSH1 0x4 MSTORE PUSH1 0x24 PUSH0 REVERT JUMPDEST PUSH0 PUSH2 0x23C DUP3 PUSH2 0x17B JUMP JUMPDEST SWAP2 POP PUSH2 0x247 DUP4 PUSH2 0x17B JUMP JUMPDEST SWAP3 POP DUP3 DUP3 MUL PUSH2 0x255 DUP2 PUSH2 0x17B JUMP JUMPDEST SWAP2 POP PUSH32 0x8000000000000000000000000000000000000000000000000000000000000000 DUP5 EQ PUSH0 DUP5 SLT AND ISZERO PUSH2 0x28C JUMPI PUSH2 0x28B PUSH2 0x205 JUMP JUMPDEST JUMPDEST DUP3 DUP3 SDIV DUP5 EQ DUP4 ISZERO OR PUSH2 0x2A1 JUMPI PUSH2 0x2A0 PUSH2 0x205 JUMP JUMPDEST JUMPDEST POP SWAP3 SWAP2 POP POP JUMP JUMPDEST PUSH32 0x4E487B7100000000000000000000000000000000000000000000000000000000 PUSH0 MSTORE PUSH1 0x12 PUSH1 0x4 MSTORE PUSH1 0x24 PUSH0 REVERT JUMPDEST PUSH0 PUSH2 0x2DF DUP3 PUSH2 0x17B JUMP JUMPDEST SWAP2 POP PUSH2 0x2EA DUP4 PUSH2 0x17B JUMP JUMPDEST SWAP3 POP DUP3 PUSH2 0x2FA JUMPI PUSH2 0x2F9 PUSH2 0x2A8 JUMP JUMPDEST JUMPDEST PUSH1 0x1 PUSH0 SUB DUP4 EQ PUSH32 0x8000000000000000000000000000000000000000000000000000000000000000 DUP4 EQ AND ISZERO PUSH2 0x332 JUMPI PUSH2 0x331 PUSH2 0x205 JUMP JUMPDEST JUMPDEST DUP3 DUP3 SDIV SWAP1 POP SWAP3 SWAP2 POP POP JUMP JUMPDEST PUSH0 PUSH2 0x347 DUP3 PUSH2 0x17B JUMP JUMPDEST SWAP2 POP PUSH2 0x352 DUP4 PUSH2 0x17B JUMP JUMPDEST SWAP3 POP DUP3 DUP3 SUB SWAP1 POP DUP2 DUP2 SLT PUSH0 DUP5 SLT AND DUP3 DUP3 SGT PUSH0 DUP6 SLT ISZERO AND OR ISZERO PUSH2 0x377 JUMPI PUSH2 0x376 PUSH2 0x205 JUMP JUMPDEST JUMPDEST SWAP3 SWAP2 POP POP JUMP JUMPDEST PUSH0 PUSH2 0x387 DUP3 PUSH2 0x17B JUMP JUMPDEST SWAP2 POP PUSH2 0x392 DUP4 PUSH2 0x17B JUMP JUMPDEST SWAP3 POP DUP3 DUP3 ADD SWAP1 POP DUP3 DUP2 SLT ISZERO PUSH0 DUP4 SLT AND DUP4 DUP3 SLT PUSH0 DUP5 SLT ISZERO AND OR ISZERO PUSH2 0x3B8 JUMPI PUSH2 0x3B7 PUSH2 0x205 JUMP JUMPDEST JUMPDEST SWAP3 SWAP2 POP POP JUMP INVALID LOG2 PUSH5 0x6970667358 0x22 SLT KECCAK256 PUSH12 0x5F9AB053028AAE19533972F2 SDIV PUSH7 0x2BD99453F6A74F PUSH14 0xF77FFF39D521592BF364736F6C63 NUMBER STOP ADDMOD 0x1E STOP CALLER "
				},
				"gasEstimates": {
					"creation": {
						"codeDepositCost": "202400",
						"executionCost": "243",
						"totalCost": "202643"
					},
					"external": {
						"addition()": "infinite",
						"division()": "infinite",
						"getfirstnumber(int256)": "22536",
						"getsecondnumber(int256)": "22581",
						"multiplication()": "infinite",
						"subtractrion()": "infinite"
					}
				},
				"methodIdentifiers": {
					"addition()": "ec597128",
					"division()": "3205f5fc",
					"getfirstnumber(int256)": "4061b02f",
					"getsecondnumber(int256)": "d4ef674d",
					"multiplication()": "011285da",
					"subtractrion()": "8a5c6bd7"
				}
			},
			"storageLayout": {
				"storage": [
					{
						"astId": 3,
						"contract": ".git/ELLLLLL.sol:calculator",
						"label": "firstnumber",
						"offset": 0,
						"slot": "0",
						"type": "t_int256"
					},
					{
						"astId": 5,
						"contract": ".git/ELLLLLL.sol:calculator",
						"label": "secondnumber",
						"offset": 0,
						"slot": "1",
						"type": "t_int256"
					}
				],
				"types": {
					"t_int256": {
						"encoding": "inplace",
						"label": "int256",
						"numberOfBytes": "32"
					}
				}
			},
			"userdoc": {
				"kind": "user",
				"methods": {},
				"version": 1
			}
		}
	}
}